:020000040800F2
:100000003004002001010008890100088B0100086C
:100010008F0100089301000897010008000000000C
:100020000000000000000000000000009B0100082C
:100030009D010008000000009F010008A1010008C8
:100040001B0100081B0100081B0100081B01000820
:100050001B0100081B0100081B0100081B01000810
:100060001B0100081B0100081B0100081B01000800
:100070001B0100081B0100081B0100081B010008F0
:100080001B0100081B0100081B0100081B010008E0
:100090001B0100081B0100081B0100081B010008D0
:1000A0001B0100081B0100081B0100081B010008C0
:1000B0001B0100081B0100081B0100081B010008B0
:1000C0001B0100081B0100081B0100081B010008A0
:1000D0001B0100081B0100081B0100081B01000890
:1000E0001B0100081B0100081B010008DFF80CD0F1
:1000F00001F024FA004800472501000830040020E0
:100100000648804706480047FEE7FEE7FEE7FEE7B1
:10011000FEE7FEE7FEE7FEE7FEE7FEE7990D0008D3
:10012000ED00000800F0EAFE00F034FF00F0B4FE3D
:1001300000F090FF09A001F033FA01F007F90CE09C
:10014000012000F0BDFE022000F0BAFE032000F006
:10015000B7FE4FF4FA7000F006FFF1E70D0A20D564
:10016000E2CAC7D2BBB8F6493243CDE2C9E828415A
:1001700054323443303829B6C1D0B4B2E2CAD4C004
:10018000FDB3CC200D0A0000704700BFFEE700BFA2
:10019000FEE700BFFEE700BFFEE77047704770470D
:1001A0000448008820B103480088401E01490880A7
:1001B000704700000000002010B50446CA48844281
:1001C00008D10121042000F027FB0021042000F0C9
:1001D00023FB46E0C548844208D10121082000F0F5
:1001E0001BFB0021082000F017FB3AE0C0488442C6
:1001F00008D10121102000F00FFB0021102000F099
:100200000BFB2EE0BB48844208D10121202000F0E6
:1002100003FB0021202000F0FFFA22E0B6488442D0
:1002200008D10121402000F0F7FA0021402000F021
:10023000F3FA16E0B148844208D10121802000F091
:10024000EBFA0021802000F0E7FA0AE0AC48844293
:1002500007D10121801500F0DFFA0021A01500F080
:10026000DBFA10BD10B50121084600F0D5FA0021D7
:10027000012000F0D1FA10BD2DE9F0410246002521
:100280000026002000230024002791F803C00CF072
:100290000F0591F803C01CF0100F03D091F802C0B5
:1002A0004CEA050591F800C0BCF1000F31D014688C
:1002B00000202BE04FF0010C0CFA00F3B1F800C065
:1002C0000CEA03069E4220D183004FF00F0C0CFA7B
:1002D00003F7BC4305FA03FC4CEA040491F803C09D
:1002E000BCF1280F06D14FF0010C0CFA00FCC2F84B
:1002F00014C00AE091F803C0BCF1480F05D14FF0DB
:10030000010C0CFA00FCC2F810C0401C0828D1D324
:100310001460B1F800C0BCF1FF0F34DD5468002058
:100320002EE000F1080C4FF0010808FA0CF3B1F8C8
:1003300000C00CEA03069E4221D183004FF00F0C4F
:100340000CFA03F7BC4305FA03FC4CEA040491F8E9
:1003500003C0BCF1280F05D100F1080C08FA0CF815
:10036000C2F8148091F803C0BCF1480F07D100F126
:10037000080C4FF0010808FA0CF8C2F81080401C75
:100380000828CED35460BDE8F0814FF6FF7101809C
:10039000022181700421C1707047024600209368D9
:1003A0000B4201D0012000E0002070470146886820
:1003B00080B2704702460020D3680B4201D0012072
:1003C00000E0002070470146C86880B270470161B4
:1003D0007047416170470AB1016100E041617047B7
:1003E000C16070474FF480320A438261816182614B
:1003F00082698269704702460020424B18684FF6B6
:100400008073184040EA021008433E4B1860704762
:100410003D49C8617047F0B50A4600230024002119
:10042000002500F00046B6F1004F02D1354EF169CB
:1004300001E0344E7168C0F3034583B200F4401606
:10044000B6F5401F08D121F070612E4E766826F077
:1004500070662C4F7E6012E000F48016B6F5801FA7
:1004600006D1032606FA05F4A14341F0706106E0C7
:10047000460D360103FA06F6B14341F0706122B130
:10048000460D360103FA06F6314300F00046B6F198
:10049000004F02D11B4EF16101E01A4E7160F0BDB8
:1004A00030B500228B071C0F0F2303FA04F2154B03
:1004B00008338C1053F824309343124C08348D10B9
:1004C00044F8253023468C1053F824308C07240F31
:1004D00000FA04F423430B4C08348D1044F8253003
:1004E00030BD0A490860704700080140000C014017
:1004F000001001400014014000180140001C0140A0
:10050000002001400000014000002042DC002042A9
:10051000DD48006840F00100DB490860084640689B
:10052000DA490840D849486008460068D849084078
:10053000D54908600846006820F480200860084615
:10054000406820F4FE0048604FF41F008860704748
:10055000CD49096821F48031CB4A11601146096800
:1005600021F480211160B0F5803F03D0B0F5802FD9
:100570000ED106E0C449096841F48031C24A1160D5
:1005800007E0C149096841F4A021BF4A116000E0B9
:1005900000BF00BF704710B50146002200230020B5
:1005A0004A11012A02D1B84C236806E0022A02D17E
:1005B000B54C236A01E0B44C636A01F01F020124C8
:1005C00094401C4201D0012000E0002010BD38B54D
:1005D000002000900024002500BF3120FFF7DBFF42
:1005E00005460098401C00900098B0F5A06F01D01F
:1005F000002DF2D03120FFF7CEFF08B1012400E03A
:100600000024204638BD014600209F4A106820F093
:10061000F80040EAC100106070479E4908607047CA
:1006200002460020984B586820F47C1042EA0103EF
:100630001843954B586070479649086670470146C5
:100640000020914A506820F0030008435060704732
:100650008D48406800F00C007047014600208A4A2F
:10066000506820F0F00008435060704701460020B9
:10067000854A506820F4E0600843506070470146A6
:100680000020814A506820F4605040EAC100506068
:10069000704729B17C4A527A02437B4B5A7204E07C
:1006A000794A527A8243784B5A7270477A49086085
:1006B000704701460020744A506820F440400843C7
:1006C000506070470021754A11706F4A82F82010FF
:1006D000012802D0042808D103E001216F4A1170DB
:1006E00004E005216D4A117000E000BF00BF7047B3
:1006F0006B49086070476449096A0143624A1162A4
:100700007047674944390860704730B500210022BE
:10071000002400235C4D6D6805F00C0121B1042913
:1007200005D0082923D105E05E4D056022E05D4D2E
:1007300005601FE0544D6D6805F47012524D6D68F0
:1007400005F48034022505EB92421CB9564D554301
:1007500005600BE04C4D6D6815F4003F03D0524D21
:100760005543056002E04F4D5543056002E04D4D95
:10077000056000BF00BF444D6D6805F0F001090938
:100780004A4D6B5C0568DD4045603F4D6D6805F482
:10079000E061090A454D6B5C4568DD4085603A4D76
:1007A0006D6805F46051C90A404D6B5C4568DD40D9
:1007B000C560354D6D6805F44041890B3C4D6B5C5F
:1007C000C568B5FBF3F5056130BD29B12E4A526904
:1007D00002432D4B5A6104E02B4A526982432A4B53
:1007E0005A61704729B1284A92690243264B9A619F
:1007F00004E0254A92698243234B9A61704729B1EC
:10080000214AD2690243204BDA6104E01E4AD269D0
:1008100082431D4BDA61704729B11B4AD2680243FB
:10082000194BDA6004E0184AD2688243164BDA604A
:10083000704729B1144A12690243134B1A6104E04C
:10084000114A12698243104B1A61704714494039AA
:10085000086070470F49C86470470B49C8717047FA
:100860000948406A40F08070074948627047014675
:100870000020054A92680A4201D0012000E00020D1
:100880007047014988727047001002400000FFF86D
:10089000FFFFF6FE00004242D80042422010024014
:1008A0008004424200127A0000093D00020000204C
:1008B0001200002010B50446FB48844209D10121F2
:1008C0008803FFF7A9FF00214FF48040FFF7A4FF42
:1008D00032E0F648844209D101214804FFF7A9FF1C
:1008E00000214FF40030FFF7A4FF25E0F0488442D8
:1008F00009D101218804FFF79CFF00214FF48020DB
:10090000FFF797FF18E0EB48844209D10121C804A2
:10091000FFF78FFF00214FF40020FFF78AFF0BE065
:10092000E548844208D101210805FFF782FF002134
:100930004FF48010FFF77DFF10BD2DE9F04786B022
:1009400005460E460024A24600BFA1460027B089F6
:1009500000B100BF2F462C8A4CF6FF700440F0888F
:1009600004432C82AC894EF6F3100440B0883189E0
:100970000843718908430443AC81AC8A4FF6FF40B9
:100980000440B0890443AC8201A8FFF7BEFEC6480C
:10099000874202D1DDF810A001E0DDF80CA0A889A3
:1009A00010F4004F08D00AEBCA0000EB0A103168BF
:1009B0004900B0FBF1F807E00AEBCA0000EB0A10AF
:1009C00031688900B0FBF1F86420B8FBF0F0040155
:1009D0002009642101FB1089A88910F4004F08D078
:1009E000322000EBC900B0FBF1F000F00700044337
:1009F00008E0322000EB09106421B0FBF1F000F0B8
:100A00000F0004432C8106B0BDE8F0874FF4165167
:100A1000016000218180C18001810C214181002180
:100A20008181704710B502460020108A4FF2FF0303
:100A300018400B884C8823438C882343CC8823435D
:100A40001843108210BD0021018041808180C18047
:100A5000704721B1828942F40052828104E0828988
:100A60004DF6FF731A4082817047F0B503460024AB
:100A7000002600250020A1F510676A3F00D100BFC5
:100A80001846C1F3421401F01F06012707FA06F5C4
:100A9000012C01D10C3004E0022C01D1103000E017
:100AA00014301AB107682F43076002E00768AF43AC
:100AB0000760F0BD1AB1838A0B43838202E0838A08
:100AC0008B4383827047028A4FF6F0731A4002828A
:100AD000028A0A430282704782894FF2FF731A40EA
:100AE000828182890A438281704721B1828942F0E2
:100AF0000202828104E082894FF6FD731A408281EE
:100B00007047028A4FF6DF731A400282028A0A4354
:100B10000282704721B1028A42F48042028204E0DC
:100B2000028A4BF6FF731A4002827047C1F3080233
:100B30008280704701468888C0F308007047818929
:100B400041F0010181817047028BD2B20283028B96
:100B500042EA012202837047028B02F47F42028341
:100B6000028B0A430283704721B1828A42F020023D
:100B7000828204E0828A4FF6DF731A4082827047D5
:100B800021B1828A42F01002828204E0828A4FF60A
:100B9000EF731A408282704721B1828A42F00802C4
:100BA000828204E0828A4FF6F7731A40828270478D
:100BB00021B1828942F40042828103E08289C2F33A
:100BC0000E028281704721B1828A42F400628282E1
:100BD00004E0828A4FF2FF731A4082827047828A51
:100BE0004FF6FB731A408282828A0A4382827047E0
:100BF00021B1828A42F00202828204E0828A4FF6A8
:100C0000FD731A408282704702460020B1F5007FD2
:100C100000D100BF13880B4201D0012000E000206A
:100C2000704701F40072B2F5007F00D100BFCA43E3
:100C30000280704770B50246002400230025002082
:100C4000A1F510666A3E00D100BFC1F3421501F064
:100C50001F03012606FA03F3012D02D196893340C2
:100C600006E0022D02D1168A334001E0968A334015
:100C70000C12012606FA04F41688344013B10CB1A4
:100C8000012000E0002070BD10B500220023A1F576
:100C900010646A3C00D100BF0A1201249440A3B240
:100CA000DC43048010BD00000038014000440040D7
:100CB00000480040004C0040005000400CB50020AF
:100CC000019000906B48006840F4803069490860EA
:100CD00000BF6848006800F4003000900198401C94
:100CE0000190009818B90198B0F5A06FF1D1614852
:100CF000006810F4003F02D00120009001E00020C5
:100D000000900098012842D15B48006840F0100034
:100D1000594908600846006820F00300086008464A
:100D2000006840F00200086052484068514948603D
:100D30000846406848600846406840F48060486063
:100D40000846406820F47C1048600846406840F43B
:100D5000E81048600846006840F08070086000BFF6
:100D60004448006810F0007FFAD04248406820F004
:100D70000300404948600846406840F0020048606F
:100D800000BF3C48406800F00C000828F9D10CBDB9
:100D900010B5FFF793FF10BD10B53648006840F05E
:100DA0000100344908600846406834490840314928
:100DB000486008460068324908402E4908600846E5
:100DC000006820F4802008600846406820F4FE0097
:100DD00048604FF41F008860FFF7DAFF4FF00060B3
:100DE0002849086010BD10B5002100200022214BC9
:100DF0005B6803F00C0121B1042906D0082928D131
:100E000007E0214B214C236027E01F4B1F4C236040
:100E100023E0184B5B6803F47010164B5B6803F417
:100E20008032022303EB904022B9194B4343174C05
:100E300023600DE00F4B5B6813F4003F04D0144BAC
:100E40004343124C236003E00F4B43430F4C23609A
:100E500003E00D4B0D4C236000BF00BF054B5B68EA
:100E6000C3F303130B4CE15C084B1B68CB40074CEE
:100E7000236010BD00100240002002400000FFF877
:100E8000FFFFF6FE08ED00E000127A0018000020D7
:100E900000093D001C00002008B501211020FFF7CB
:100EA000A1FC4FF40050ADF8000010208DF80300B5
:100EB00003208DF8020069460E48FFF7DDF908BDF2
:100EC000012806D10B49C96881F40051094AD16053
:100ED0000EE0022806D10849096881F00101064A9E
:100EE000116005E00449096881F00201024A1160BD
:100EF00070470000001001400C0C014030B500BFED
:100F00001F4800681F4AB0FBF2F1B1F1807F01D3A6
:100F100001201DE021F07F40401E4FF0E022506193
:100F200050170F22002807DA13071D0E164B00F08A
:100F30000F04241F1D5503E013071C0E134B1C54F4
:100F400000BF00204FF0E0229061072010610020D8
:100F50000028D5D130BD0E49088000BF0C49098852
:100F60000029FBD1704700B5024603E04FF47A70C8
:100F7000FFF7F1FF1000A2F101018AB2F6D100BD26
:100F80001800002040420F0018ED00E000E400E0EF
:100F90000000002000B585B0012144F20400FFF7F5
:100FA00021FC4FF40070ADF8100018208DF81300EC
:100FB00003208DF8120004A92448FFF75DF94FF4CF
:100FC0008060ADF8100004208DF8130003208DF828
:100FD000120004A91D48FFF74FF94FF41650009076
:100FE0000020ADF80400ADF80600ADF80800ADF83B
:100FF0000C000C20ADF80A0069461548FFF79DFC6F
:1010000040211348FFF70DFE012240F22551104800
:10101000FFF72BFD012240F227710D48FFF725FD58
:1010200001210B48FFF715FD05B000BD70B5044662
:101030000D46E1B20648FFF779FD00BF40210448A4
:10104000FFF7E2FD0028F9D0204670BD00080140FE
:101050000038014008B501210820FFF7C3FB4020FC
:10106000ADF8000003208DF8020014208DF8030075
:101070006946E748FFF700F98020ADF8000003203B
:101080008DF8020014208DF803006946E048FFF750
:10109000F3F808BD322001E0411EC8B20028FBD1A0
:1010A000704710B58021DA48FFF791F94021D84800
:1010B000FFF78DF9FFF7EEFF8021D548FFF76DF9B7
:1010C00008B9002010BD8021D148FFF782F9FFF751
:1010D000E1FF8021CE48FFF760F908B10020F1E779
:1010E0008021CB48FFF775F9FFF7D4FF0120E9E72E
:1010F00010B54021C648FFF76CF9FFF7CBFF802100
:10110000C348FFF766F9FFF7C5FF4021C048FFF766
:101110005EF9FFF7BFFF8021BD48FFF758F9FFF7E1
:10112000B9FF10BD10B54021B948FFF752F9FFF7DC
:10113000B1FF8021B648FFF74CF9FFF7ABFF402124
:10114000B348FFF744F9FFF7A5FF4021B048FFF788
:1011500040F9FFF79FFF10BD10B54021AC48FFF7E5
:1011600038F9FFF797FF8021A948FFF730F9FFF71B
:1011700091FF4021A648FFF72AF9FFF78BFF402196
:10118000A348FFF726F9FFF785FF10BD10B54021F2
:101190009F48FFF71EF9FFF77DFF80219C48FFF76E
:1011A00016F9FFF777FF40219948FFF710F9FFF78D
:1011B00071FF80219648FFF7F0F828B1402194484C
:1011C000FFF707F9002010BD40219148FFF701F912
:1011D0000120F8E770B5044608251BE040218C4843
:1011E000FFF7F7F8FFF756FF14F0800F04D08021C7
:1011F0008748FFF7ECF803E080218548FFF7E9F81E
:101200006006040EFFF746FF40218148FFF7DFF834
:10121000FFF740FF2800A5F10101CDB2DED140214A
:101220007B48FFF7D6F870BD70B5082500248021F3
:101230007748FFF7CCF814E06006040E40217448AC
:10124000FFF7C7F8FFF726FF40217148FFF7BFF807
:10125000FFF720FF80216E48FFF79FF808B144F0A8
:1012600001042800A5F10101CDB2E5D14021684873
:10127000FFF7AFF8204670BD70B506460C46154620
:10128000FFF70FFF08B9002070BD04F4E06145EAE4
:10129000E1114FF6FE7201EA0200FFF79BFFFFF734
:1012A00075FF18B9FFF724FF0020EDE7E0B2FFF764
:1012B00091FFFFF76BFF3046FFF78CFFFFF766FFEC
:1012C000FFF716FF0120DFE72DE9F04106460C4647
:1012D00015461F46FFF7E5FE10B90020BDE8F08176
:1012E00005F4E06147EAE1114FF6FE7201EA0200FF
:1012F000FFF770FFFFF74AFF18B9FFF7F9FE00206C
:10130000ECE7E8B2FFF766FFFFF740FFFFF7C9FE23
:1013100005F4E06147EAE11141F00100FFF75AFFEF
:10132000FFF734FF0CE0FFF77FFF3070012C02D194
:10133000FFF712FF01E0FFF7F5FE761C601E84B296
:10134000002CF0D1FFF7D4FE0120C7E710B5ADF5B2
:10135000007D002413E040A90C5540A8015D2DA09C
:1013600000F01EF9E11704EB11710911A4EB011152
:101370000F2902D129A000F013F9601C84B2FF2CC0
:10138000E9DD27A000F00CF900240AE000BF40A925
:10139000085DA0222146FFF76FFF0028F7D0601CF0
:1013A00084B2FF2CF2DD26A000F0FAF82BA000F0AA
:1013B000F7F8A02300224FF480716846FFF784FFFE
:1013C000002411E01DF8041012A000F0E9F8E11764
:1013D00004EB11710911A4EB01110F2902D10FA027
:1013E00000F0DEF8601C84B2FF2CEBDD4FF480725D
:1013F000694640A800F064F818B920A000F0D0F8C1
:1014000002E026A000F0CCF80DF5007D10BD000034
:10141000000C014030782530327820000A0D0000A1
:101420000D0A20454550524F4D203234433038206C
:1014300057726974652054657374200D0A000000AA
:101440000D0A20454550524F4D2057726974652052
:1014500054657374204F4B200D0A00000D0A20457F
:101460004550524F4D20323443303820526561642C
:101470002054657374200D0A000000000D0A2045F9
:101480004550524F4D20323443303820526561640C
:101490002054657374204F4B0D0A00000D0A20453F
:1014A0004550524F4D2032344330382052656164EC
:1014B00020546573742046616C73650D0A0000004A
:1014C00030B504460020034600E05B1C934203D283
:1014D000E05CCD5C401BF8D030BD2DE9F05F0546E7
:1014E000002092469B4688460646814640241BE0E3
:1014F000284641464746224600F041F853465A46A0
:10150000C01A914110D311461846224600F028F81F
:101510002D1A67EB01084F4622460120002100F0FA
:101520001FF817EB00094E41201EA4F10104DFDC77
:10153000484631462A464346BDE8F09F064C074DD3
:1015400006E0E06840F0010394E807009847103493
:10155000AC42F6D3FEF7CEFD401A0008601A000830
:10156000202A04DB203A00FA02F100207047914063
:10157000C2F1200320FA03F3194390407047202A58
:1015800004DB203A21FA02F00021704721FA02F32D
:10159000D040C2F120029140084319467047000034
:1015A0000FB4054B10B503A9044A029800F018F8CF
:1015B00010BC5DF814FB00002D1000082C0000206A
:1015C00002E008C8121F08C1002AFAD1704770470C
:1015D000002001E001C1121F002AFBD1704700006A
:1015E0002DE9FF4F8DB00F4605460026DEE1252888
:1015F00074D100246D1CF149A246A14601222B782A
:10160000203B02FA03F0084202D004436D1CF6E7C7
:1016100028782A2810D06FF02F022878A0F1300106
:10162000092915D80AEB8A0102EB410144F00204B2
:1016300000EB010A6D1CF0E757F804ABBAF1000F9C
:1016400003DA44F40054CAF1000A44F002046D1CA9
:1016500028782E2817D115F8010F44F004042A2801
:101660000ED06FF02F022878A0F1300109290AD896
:1016700009EB890102EB410100EB01096D1CF2E766
:1016800057F8049B6D1C28786C280FD006DC4C287A
:1016900017D068280DD06A2814D104E0742810D01F
:1016A0007A280FD10DE044F400140AE044F48014C9
:1016B00001E044F440146978814202D16D1C04F5C4
:1016C00080146D1C2A786E2A20D00DDC632A33D05A
:1016D00005DC002A6FD0582A12D1A2E011E0642A5A
:1016E0006AD0692A0CD167E0732A2FD004DC6F2AF4
:1016F0006FD0702A04D199E0752A6BD0782A6AD00D
:101700001046DDE90F129047761C4EE1C4F30250FB
:10171000022806D003280AD0042801CF0AD0066088
:1017200043E101CF4FEAE671C0E900613DE101CF3D
:1017300006803AE1067038E117F8040B8DF80000D6
:1017400000208DF80100EB46012003E057F804BBB0
:101750004FF0FF3061074FF0000102D40DE008F1B7
:101760000101884649450FDA8045F8DB1BF808106F
:101770000029F4D108E008F1010188468142FADB32
:101780001BF808100029F6D1DDE90F23AAEB0800A9
:101790008146214600F03BF9304400EB080604E0A6
:1017A000DDE90F121BF8010B9047B8F10108F7D2E1
:1017B00021464846F4E0FDE00A21C4F302534FF00D
:1017C000000B0891022B07D001CFC117032B09D0C2
:1017D0000AE034E023E024E0FF1D27F00707F7E8E4
:1017E000020105E000B2C117042B01D140B2C117BC
:1017F000002907DA4FF0000CD0EB0C006CEB010174
:101800002D2302E0230504D52B238DF8243001235A
:1018100003E0E30701D02023F7E7984650E00A21D0
:101820000EE010204FF0000B08900CE010214FF05C
:10183000000B44F004044FF00809089103E008216C
:101840004FF0000B0891C4F30253022B04D001CFD8
:101850000021032B06D006E0FF1D27F00707F7E85D
:10186000020103E080B2042B00D1C0B24FF00008A7
:10187000230725D5702A2AD0DDF820C08CF0100C63
:101880005CEA0B0C09D150EA010306D030238DF835
:1018900024308DF8252002239846DDF820C08CF0F6
:1018A000080C5CEA0B0C0BD150EA010301D1630771
:1018B00006D530238DF824304FF00108A9F1010935
:1018C000582A09D03EA20B9208AA0A9211E040239E
:1018D0008DF824300123DFE73EA2F4E75B46089A47
:1018E000FFF7FBFD0B9B9B5C0A9AA2F101020A9297
:1018F000137050EA0102F1D10A98ADEB000000F13B
:10190000200B600702D524F4803401E04FF0010978
:10191000D94502DDA9EB0B0000E0002000EB0B0134
:1019200041440890AAEB010AE00306D4DDE90F2345
:101930002146504600F06BF80644002008E009A953
:1019400011F80900DDE90F129047761C09F101003A
:1019500081464045F3DBE0030CD5DDE90F2321464A
:10196000504600F054F8064404E0DDE90F12302040
:101970009047761C0899481E08900029F5DC08E07D
:101980000A980A990078491C0A91DDE90F129047DC
:10199000761CBBF10001ABF1010BF1DC2146504696
:1019A000DDE90F2300F020F806446D1C287800289C
:1019B0007FF41DAE11B03046BDE8F08F092801005C
:1019C00030313233343536373839616263646566B5
:1019D0000000000030313233343536373839414277
:1019E00043444546000000002DE9F041044600252F
:1019F0001E461746880405D406E039462020B04725
:101A000005F10105641EF8D52846BDE8F0812DE9F1
:101A1000F041044600251E469046C80301D53027F4
:101A200000E02027880405D506E041463846B04747
:101A300005F10105641EF8D52846BDE8F0810000D7
:101A4000601A00080000002030000000C0150008E7
:101A5000901A00083000002000040000D015000893
:101A60000000000000000102030401020304060755
:101A7000080902040608000000A24A040000000051
:101A8000000000000102030406070809000000002E
:04000005080000ED02
:00000001FF
